{
  "contractName": "CertificateRegistry",
  "abi": [
    {
      "anonymous": false,
      "inputs": [
        {
          "indexed": false,
          "internalType": "uint256",
          "name": "id",
          "type": "uint256"
        },
        {
          "indexed": false,
          "internalType": "string",
          "name": "studentName",
          "type": "string"
        },
        {
          "indexed": false,
          "internalType": "string",
          "name": "course",
          "type": "string"
        },
        {
          "indexed": false,
          "internalType": "string",
          "name": "issueDate",
          "type": "string"
        }
      ],
      "name": "CertificateRegistered",
      "type": "event"
    },
    {
      "anonymous": false,
      "inputs": [
        {
          "indexed": false,
          "internalType": "uint256",
          "name": "id",
          "type": "uint256"
        }
      ],
      "name": "CertificateRevoked",
      "type": "event"
    },
    {
      "inputs": [
        {
          "internalType": "uint256",
          "name": "",
          "type": "uint256"
        }
      ],
      "name": "certificateIds",
      "outputs": [
        {
          "internalType": "uint256",
          "name": "",
          "type": "uint256"
        }
      ],
      "stateMutability": "view",
      "type": "function",
      "constant": true
    },
    {
      "inputs": [
        {
          "internalType": "uint256",
          "name": "",
          "type": "uint256"
        }
      ],
      "name": "certificates",
      "outputs": [
        {
          "internalType": "uint256",
          "name": "id",
          "type": "uint256"
        },
        {
          "internalType": "string",
          "name": "studentName",
          "type": "string"
        },
        {
          "internalType": "string",
          "name": "course",
          "type": "string"
        },
        {
          "internalType": "string",
          "name": "issueDate",
          "type": "string"
        },
        {
          "internalType": "bool",
          "name": "isValid",
          "type": "bool"
        }
      ],
      "stateMutability": "view",
      "type": "function",
      "constant": true
    },
    {
      "inputs": [
        {
          "internalType": "uint256",
          "name": "_id",
          "type": "uint256"
        },
        {
          "internalType": "string",
          "name": "_studentName",
          "type": "string"
        },
        {
          "internalType": "string",
          "name": "_course",
          "type": "string"
        },
        {
          "internalType": "string",
          "name": "_issueDate",
          "type": "string"
        }
      ],
      "name": "registerCertificate",
      "outputs": [],
      "stateMutability": "nonpayable",
      "type": "function"
    },
    {
      "inputs": [
        {
          "internalType": "uint256",
          "name": "_id",
          "type": "uint256"
        }
      ],
      "name": "getCertificate",
      "outputs": [
        {
          "internalType": "uint256",
          "name": "",
          "type": "uint256"
        },
        {
          "internalType": "string",
          "name": "",
          "type": "string"
        },
        {
          "internalType": "string",
          "name": "",
          "type": "string"
        },
        {
          "internalType": "string",
          "name": "",
          "type": "string"
        },
        {
          "internalType": "bool",
          "name": "",
          "type": "bool"
        }
      ],
      "stateMutability": "view",
      "type": "function",
      "constant": true
    },
    {
      "inputs": [
        {
          "internalType": "uint256",
          "name": "_id",
          "type": "uint256"
        }
      ],
      "name": "revokeCertificate",
      "outputs": [],
      "stateMutability": "nonpayable",
      "type": "function"
    },
    {
      "inputs": [],
      "name": "getAllCertificateIds",
      "outputs": [
        {
          "internalType": "uint256[]",
          "name": "",
          "type": "uint256[]"
        }
      ],
      "stateMutability": "view",
      "type": "function",
      "constant": true
    }
  ],
  "bytecode": "0x608060405234801561000f575f80fd5b5061114c8061001d5f395ff3fe608060405234801561000f575f80fd5b5060043610610060575f3560e01c806306f5497e146100645780630f9c774d146100805780632a7cc57c146100b057806351640fee146100cc578063663b3e22146101005780638fa44e1514610134575b5f80fd5b61007e600480360381019061007991906108a5565b610152565b005b61009a600480360381019061009591906108a5565b610250565b6040516100a791906108df565b60405180910390f35b6100ca60048036038101906100c59190610a34565b610270565b005b6100e660048036038101906100e191906108a5565b6103d3565b6040516100f7959493929190610b80565b60405180910390f35b61011a600480360381019061011591906108a5565b61063c565b60405161012b959493929190610b80565b60405180910390f35b61013c61080b565b6040516101499190610c9d565b60405180910390f35b5f805f8381526020019081526020015f2090505f815f0154036101aa576040517f08c379a00000000000000000000000000000000000000000000000000000000081526004016101a190610d07565b60405180910390fd5b806004015f9054906101000a900460ff166101fa576040517f08c379a00000000000000000000000000000000000000000000000000000000081526004016101f190610d6f565b60405180910390fd5b5f816004015f6101000a81548160ff0219169083151502179055507fefa6c5f47ac2523bb4db18032377bf7fdce0fa9d86eddcae1ca9bba38be615d78260405161024491906108df565b60405180910390a15050565b6001818154811061025f575f80fd5b905f5260205f20015f915090505481565b5f805f8681526020019081526020015f205f0154146102c4576040517f08c379a00000000000000000000000000000000000000000000000000000000081526004016102bb90610dd7565b60405180910390fd5b6040518060a00160405280858152602001848152602001838152602001828152602001600115158152505f808681526020019081526020015f205f820151815f0155602082015181600101908161031b9190610fef565b5060408201518160020190816103319190610fef565b5060608201518160030190816103479190610fef565b506080820151816004015f6101000a81548160ff021916908315150217905550905050600184908060018154018082558091505060019003905f5260205f20015f90919091909150557f7deee8e95cfae040d6d4b6a3566e6be0cdfc5a3654a3db292a3ee177b08ae853848484846040516103c594939291906110be565b60405180910390a150505050565b5f60608060605f805f808881526020019081526020015f206040518060a00160405290815f820154815260200160018201805461040f90610e22565b80601f016020809104026020016040519081016040528092919081815260200182805461043b90610e22565b80156104865780601f1061045d57610100808354040283529160200191610486565b820191905f5260205f20905b81548152906001019060200180831161046957829003601f168201915b5050505050815260200160028201805461049f90610e22565b80601f01602080910402602001604051908101604052809291908181526020018280546104cb90610e22565b80156105165780601f106104ed57610100808354040283529160200191610516565b820191905f5260205f20905b8154815290600101906020018083116104f957829003601f168201915b5050505050815260200160038201805461052f90610e22565b80601f016020809104026020016040519081016040528092919081815260200182805461055b90610e22565b80156105a65780601f1061057d576101008083540402835291602001916105a6565b820191905f5260205f20905b81548152906001019060200180831161058957829003601f168201915b50505050508152602001600482015f9054906101000a900460ff16151515158152505090505f815f015103610610576040517f08c379a000000000000000000000000000000000000000000000000000000000815260040161060790610d07565b60405180910390fd5b805f01518160200151826040015183606001518460800151955095509550955095505091939590929450565b5f602052805f5260405f205f91509050805f01549080600101805461066090610e22565b80601f016020809104026020016040519081016040528092919081815260200182805461068c90610e22565b80156106d75780601f106106ae576101008083540402835291602001916106d7565b820191905f5260205f20905b8154815290600101906020018083116106ba57829003601f168201915b5050505050908060020180546106ec90610e22565b80601f016020809104026020016040519081016040528092919081815260200182805461071890610e22565b80156107635780601f1061073a57610100808354040283529160200191610763565b820191905f5260205f20905b81548152906001019060200180831161074657829003601f168201915b50505050509080600301805461077890610e22565b80601f01602080910402602001604051908101604052809291908181526020018280546107a490610e22565b80156107ef5780601f106107c6576101008083540402835291602001916107ef565b820191905f5260205f20905b8154815290600101906020018083116107d257829003601f168201915b505050505090806004015f9054906101000a900460ff16905085565b6060600180548060200260200160405190810160405280929190818152602001828054801561085757602002820191905f5260205f20905b815481526020019060010190808311610843575b5050505050905090565b5f604051905090565b5f80fd5b5f80fd5b5f819050919050565b61088481610872565b811461088e575f80fd5b50565b5f8135905061089f8161087b565b92915050565b5f602082840312156108ba576108b961086a565b5b5f6108c784828501610891565b91505092915050565b6108d981610872565b82525050565b5f6020820190506108f25f8301846108d0565b92915050565b5f80fd5b5f80fd5b5f601f19601f8301169050919050565b7f4e487b71000000000000000000000000000000000000000000000000000000005f52604160045260245ffd5b61094682610900565b810181811067ffffffffffffffff8211171561096557610964610910565b5b80604052505050565b5f610977610861565b9050610983828261093d565b919050565b5f67ffffffffffffffff8211156109a2576109a1610910565b5b6109ab82610900565b9050602081019050919050565b828183375f83830152505050565b5f6109d86109d384610988565b61096e565b9050828152602081018484840111156109f4576109f36108fc565b5b6109ff8482856109b8565b509392505050565b5f82601f830112610a1b57610a1a6108f8565b5b8135610a2b8482602086016109c6565b91505092915050565b5f805f8060808587031215610a4c57610a4b61086a565b5b5f610a5987828801610891565b945050602085013567ffffffffffffffff811115610a7a57610a7961086e565b5b610a8687828801610a07565b935050604085013567ffffffffffffffff811115610aa757610aa661086e565b5b610ab387828801610a07565b925050606085013567ffffffffffffffff811115610ad457610ad361086e565b5b610ae087828801610a07565b91505092959194509250565b5f81519050919050565b5f82825260208201905092915050565b5f5b83811015610b23578082015181840152602081019050610b08565b5f8484015250505050565b5f610b3882610aec565b610b428185610af6565b9350610b52818560208601610b06565b610b5b81610900565b840191505092915050565b5f8115159050919050565b610b7a81610b66565b82525050565b5f60a082019050610b935f8301886108d0565b8181036020830152610ba58187610b2e565b90508181036040830152610bb98186610b2e565b90508181036060830152610bcd8185610b2e565b9050610bdc6080830184610b71565b9695505050505050565b5f81519050919050565b5f82825260208201905092915050565b5f819050602082019050919050565b610c1881610872565b82525050565b5f610c298383610c0f565b60208301905092915050565b5f602082019050919050565b5f610c4b82610be6565b610c558185610bf0565b9350610c6083610c00565b805f5b83811015610c90578151610c778882610c1e565b9750610c8283610c35565b925050600181019050610c63565b5085935050505092915050565b5f6020820190508181035f830152610cb58184610c41565b905092915050565b7f436572746966696361746520646f6573206e6f742065786973742e00000000005f82015250565b5f610cf1601b83610af6565b9150610cfc82610cbd565b602082019050919050565b5f6020820190508181035f830152610d1e81610ce5565b9050919050565b7f436572746966696361746520616c7265616479207265766f6b65642e000000005f82015250565b5f610d59601c83610af6565b9150610d6482610d25565b602082019050919050565b5f6020820190508181035f830152610d8681610d4d565b9050919050565b7f436572746966696361746520494420616c7265616479206578697374732e00005f82015250565b5f610dc1601e83610af6565b9150610dcc82610d8d565b602082019050919050565b5f6020820190508181035f830152610dee81610db5565b9050919050565b7f4e487b71000000000000000000000000000000000000000000000000000000005f52602260045260245ffd5b5f6002820490506001821680610e3957607f821691505b602082108103610e4c57610e4b610df5565b5b50919050565b5f819050815f5260205f209050919050565b5f6020601f8301049050919050565b5f82821b905092915050565b5f60088302610eae7fffffffffffffffffffffffffffffffffffffffffffffffffffffffffffffffff82610e73565b610eb88683610e73565b95508019841693508086168417925050509392505050565b5f819050919050565b5f610ef3610eee610ee984610872565b610ed0565b610872565b9050919050565b5f819050919050565b610f0c83610ed9565b610f20610f1882610efa565b848454610e7f565b825550505050565b5f90565b610f34610f28565b610f3f818484610f03565b505050565b5b81811015610f6257610f575f82610f2c565b600181019050610f45565b5050565b601f821115610fa757610f7881610e52565b610f8184610e64565b81016020851015610f90578190505b610fa4610f9c85610e64565b830182610f44565b50505b505050565b5f82821c905092915050565b5f610fc75f1984600802610fac565b1980831691505092915050565b5f610fdf8383610fb8565b9150826002028217905092915050565b610ff882610aec565b67ffffffffffffffff81111561101157611010610910565b5b61101b8254610e22565b611026828285610f66565b5f60209050601f831160018114611057575f8415611045578287015190505b61104f8582610fd4565b8655506110b6565b601f19841661106586610e52565b5f5b8281101561108c57848901518255600182019150602085019450602081019050611067565b868310156110a957848901516110a5601f891682610fb8565b8355505b6001600288020188555050505b505050505050565b5f6080820190506110d15f8301876108d0565b81810360208301526110e38186610b2e565b905081810360408301526110f78185610b2e565b9050818103606083015261110b8184610b2e565b90509594505050505056fea26469706673582212209d50126e0d299c4f93890da3ff9f062a6d1f5db716c8314b6ab6aa58b96c516b64736f6c63430008180033",
  "immutableReferences": {},
  "source": "// SPDX-License-Identifier: GPL-3.0\r\npragma solidity ^0.8.24;\r\n\r\ncontract CertificateRegistry {\r\n    \r\n    struct Certificate {\r\n        uint id;\r\n        string studentName;\r\n        string course;\r\n        string issueDate;\r\n        bool isValid;\r\n    }\r\n\r\n    mapping(uint => Certificate) public certificates;\r\n    uint[] public certificateIds;\r\n\r\n    event CertificateRegistered(uint id, string studentName, string course, string issueDate);\r\n    event CertificateRevoked(uint id);\r\n\r\n    // Funo para registrar um novo certificado\r\n    function registerCertificate(uint _id, string memory _studentName, string memory _course, string memory _issueDate) public {\r\n        require(certificates[_id].id == 0, \"Certificate ID already exists.\");\r\n        \r\n        certificates[_id] = Certificate({\r\n            id: _id,\r\n            studentName: _studentName,\r\n            course: _course,\r\n            issueDate: _issueDate,\r\n            isValid: true\r\n        });\r\n\r\n        certificateIds.push(_id);\r\n\r\n        emit CertificateRegistered(_id, _studentName, _course, _issueDate);\r\n    }\r\n\r\n    // Funo para obter um certificado pelo ID\r\n    function getCertificate(uint _id) public view returns (uint, string memory, string memory, string memory, bool) {\r\n        Certificate memory cert = certificates[_id];\r\n        require(cert.id != 0, \"Certificate does not exist.\");\r\n        \r\n        return (cert.id, cert.studentName, cert.course, cert.issueDate, cert.isValid);\r\n    }\r\n    \r\n    // Funo para revogar um certificado pelo ID\r\n    function revokeCertificate(uint _id) public {\r\n        Certificate storage cert = certificates[_id];\r\n        require(cert.id != 0, \"Certificate does not exist.\");\r\n        require(cert.isValid, \"Certificate already revoked.\");\r\n\r\n        cert.isValid = false;\r\n        emit CertificateRevoked(_id);\r\n    }\r\n\r\n    // Funo para listar todos os IDs de certificados registrados\r\n    function getAllCertificateIds() public view returns (uint[] memory) {\r\n        return certificateIds;\r\n    }\r\n}\r\n\r\n",
  "sourcePath": "C:\\Users\\User\\Desktop\\FACULDADE\\sensato\\bloack-chain\\contracts\\CertificateRegistry.sol",
  "compiler": {
    "name": "solc",
    "version": "0.8.24+commit.e11b9ed9.Emscripten.clang"
  },
  "schemaVersion": "3.4.16",
  "updatedAt": "2024-11-06T04:00:59.807Z",
  "networkType": "ethereum",
  "devdoc": {
    "kind": "dev",
    "methods": {},
    "version": 1
  },
  "userdoc": {
    "kind": "user",
    "methods": {},
    "version": 1
  }
}